:020000040800F2
:10000000680800105B01000866010008680100082C
:100010006A0100086C0100086E0100080000000081
:100020000000000000000000000000007001000857
:100030007201000800000000740100087601000849
:080040006501000865010008DC
:0400480000000000B4
:08004C0090000000010000001B
:100054000348044B834202D0034B03B11847704753
:100064004004001040040010000000000548064948
:100074000B1AD90F01EBA301491002D0034B03B1B2
:1000840018477047400400104004001000000000AE
:1000940010B5064C237843B9FFF7DAFF044B13B1CC
:1000A4000448AFF300800123237010BD4404001002
:1000B400000000004800000808B5044B1BB10449C7
:1000C4000448AFF30080BDE80840CFE7000000001B
:1000D4004804001048000008A3F5803A704700BFA8
:1000E400154B002B08BF114B9D46FFF7F5FF002170
:1000F4008B460F461148124A121A00F017F90C4B9E
:10010400002B00D098470B4B002B00D098470020C1
:10011400002104000D000B4800F0B2F800F0E2F8F2
:100124002000290000F010F800F0B6F800000800E4
:100134000000000000000000000000004404001063
:1001440064040010BD02000880B400AF0023184608
:10015400BD4680BC704700F00DF8FFF7F5FFFEE7E1
:10016400FEE7FEE7FEE7FEE7FEE7FEE7FEE7FEE763
:10017400FEE7FEE780B400AF00BFBD4680BC704719
:1001840080B400AF034B044A1A6000BFBD4680BC74
:10019400704700BF0400001000C2EB0B80B584B0B0
:1001A40000AFF860B9607A6000F070F80346582236
:1001B4001A604FF0FF3318461037BD4680BD80B437
:1001C40085B000AFF860B9607A607B681846143770
:1001D400BD4680BC704780B485B000AF78600B4BDF
:1001E4001B68002B02D1094B094A1A60074B1B6894
:1001F400FB60064B1A687B681344044A1360FB686F
:1002040018461437BD4680BC704700BF6004001018
:10021400680C001080B483B000AF78604FF0FF33F7
:1002240018460C37BD4680BC704780B483B000AF1D
:10023400786039603B684FF400525A6000231846D6
:100244000C37BD4680BC704780B483B000AF786083
:10025400012318460C37BD4680BC704780B485B076
:1002640000AFF860B9607A60002318461437BD46C1
:1002740080BC704780B483B000AF7860FEE700BFF5
:10028400002301461A46184600F0A2B8014B18682C
:10029400704700BF0800001008B50021044600F0B4
:1002A400CBF8044B1868C36B03B198472046FFF79B
:1002B400E1FF00BF2405000838B5084B084D5B1B5F
:1002C4009C1007D0043B1D44013C55F80439984761
:1002D400002CF9D1BDE8384000F03CB90000000022
:1002E4000000000070B50D4E0D4D761BB61006D003
:1002F400002455F8043B01349847A642F9D1094E2D
:10030400094D761B00F020F9B61006D0002455F8EC
:10031400043B01349847A642F9D170BD00000000A7
:10032400000000000000000000000000830730B55A
:1003340048D0541E002A3FD0CAB2034601E0013C13
:100344003AD303F8012B9D07F9D1032C2DD9CDB253
:1003540045EA05250F2C45EA054536D9A4F11002D6
:1003640022F00F0C03F1200EE6444FEA121C03F1B5
:10037400100242E9045542E9025510327245F8D19F
:100384000CF1010214F00C0F03EB021204F00F0C39
:1003940013D0ACF1040323F003030433134442F8F1
:1003A400045B9342FBD10CF003042CB1CAB21C448D
:1003B40003F8012B9C42FBD130BD64461346002C4C
:1003C400F4D1F9E703461446BFE71A46A446E0E72A
:1003D40070B4184C2568D5F848411CB365681F2DC6
:1003E40025DC38B9AB1C0135656044F823100020C6
:1003F40070BC704704EB850C0228CCF88820D4F834
:1004040088614FF0010202FA05F246EA0206C4F8D6
:100414008861CCF80831E5D1D4F88C311343C4F8A1
:100424008C31DFE705F5A674C5F84841D6E74FF0EF
:10043400FF30DDE7240500082DE9F04F294B1F6844
:1004440083B0D7F848610190B6B18B464FF00108EC
:100454004FF000097468651E0ED4013406EB840461
:10046400BBF1000F0BD0D4F800315B4507D0013D40
:100474006B1CA4F10404F3D103B0BDE8F08F7368DE
:100484002268013BAB420CBF7560C4F80090002A9F
:10049400EDD0D6F88801D6F804A008FA05F1014297
:1004A4000BD190477268524512D1D7F84831B34204
:1004B400DDD01E46002ECDD1DEE7D6F88C010142F8
:1004C4000BD1D4F880100198904772685245ECD053
:1004D400D7F84861002EBDD1CEE7D4F8800090470C
:1004E400E0E700BF24050008024B13B10248FFF700
:1004F400C7BE704700000000BD0200083A3D0A3D37
:100504000F3D243D323D023D053D133D0D3D0C3D67
:10051400233D113D263D013D173D083D093D0000A9
:10052400100000103A3D0A3D0F3D243D323D023D8E
:10053400053D133D0D3D0C3D233D113D263D013D43
:10054400173D083D093D0000F8B500BFF8BC08BCE4
:100554009E467047F8B500BFF8BC08BC9E4670477D
:100564000000000000C2EB0B1000001000000000AF
:1005740000000000FC02001064030010CC03001013
:100584000000000000000000000000000000000067
:100594000000000000000000000000000000000057
:1005A4000000000000000000000000000000000047
:1005B4000000000000000000000000000000000037
:1005C4000000000000000000000000000000000027
:1005D4000000000000000000000000000000000017
:1005E4000000000000000000000000000000000007
:1005F40000000000000000000000000000000000F7
:1006040000000000000000000000000000000000E6
:1006140000000000000000000100000000000000D5
:100624000E33CDAB34126DE6ECDE05000B0000009A
:1006340000000000000000000000000000000000B6
:1006440000000000000000000000000000000000A6
:100654000000000000000000000000000000000096
:100664000000000000000000000000000000000086
:04099C00BD00000892
:0409A00095000008B6
:0409A400ED04000856
:040000050800015B93
:00000001FF
